{
  "transactions": [
    {
      "hash": null,
      "transactionType": "CALL",
      "contractName": null,
      "contractAddress": "0xd877909f69922e0a2e49d8aa07da459a18272de9",
      "function": "execute((((address,uint256,bytes)[],bool),uint256,bytes32,address,uint256),bytes)",
      "arguments": [
        "(([(0x21c23bA0ec49c9440CD259cCB48ff9D06CD16522, 0, 0xbda734c63987614dda8648d57c5da041fd60b5b726c408043f2b9875a0a076c6609487ec), (0x4529A01c7A0410167c5740C487A8DE60232617bf, 0, 0xdd46508f0000000000000000000000000000000000000000000000000000000000000040000000000000000000000000000000000000000000000000000000006987fb670000000000000000000000000000000000000000000000000000000000000240000000000000000000000000000000000000000000000000000000000000004000000000000000000000000000000000000000000000000000000000000000800000000000000000000000000000000000000000000000000000000000000002011100000000000000000000000000000000000000000000000000000000000000000000000000000000000000000000000000000000000000000000000000020000000000000000000000000000000000000000000000000000000000000040000000000000000000000000000000000000000000000000000000000000012000000000000000000000000000000000000000000000000000000000000000c00000000000000000000000000000000000000000000000000000000000259a9e00000000000000000000000000000000000000000000000000000000000f6950000000000000000000000000000000000000000000000000000000000007b444000000000000000000000000000000000000000000000000000000000007b44400000000000000000000000000000000000000000000000000000000000000a000000000000000000000000000000000000000000000000000000000000000000000000000000000000000000000000000000000000000000000000000000060000000000000000000000000078d782b760474a361dda0af3839290b0ef57ad6000000000000000000000000588ce4f028d8e7b53b687865d6a67b3a54c7551800000000000000000000000032d520c1b7fd3fffead470de6678be0734cc2585), (0x32D520C1b7FD3fffEaD470DE6678be0734CC2585, 0, 0x9ff0e279000000000000000000000000078d782b760474a361dda0af3839290b0ef57ad6000000000000000000000000588ce4f028d8e7b53b687865d6a67b3a54c75518000000000000000000000000000000000000000000000000000000000000271000000000000000000000000000000000000000000000000000000000000000c80000000000000000000000000000000000000000000000000000000000000000000000000000000000000000588ce4f028d8e7b53b687865d6a67b3a54c755180000000000000000000000005992fe461f81c8e0affa95b831e50e9b3854ba0e00000000000000000000000000000000000000000000000000000000001e8480)], true), 1, 0x0000000000000000000000000000000000000000000000000000000000000000, 0x0000000000000000000000000000000000000000, 0)",
        "0x000000000000000000000000000000000000000000000000000000000000004000000000000000000000000000000000000000000000000000000000000000c00000000000000000000000000000000000000000000000000000000000000041636b64091748c47aeb1d329de289306d0acc0f05d1027d6861234c79de1e16c51ceeabb65c46502b14e32de4ae78c2ab0ce2bcebc5be239eb0d1d3b35b7e39271b000000000000000000000000000000000000000000000000000000000000000000000000000000000000000000000000000000000000000000000000000000"
      ],
      "transaction": {
        "from": "0x5992fe461f81c8e0affa95b831e50e9b3854ba0e",
        "to": "0xd877909f69922e0a2e49d8aa07da459a18272de9",
        "gas": "0x71e94",
        "value": "0x0",
        "input": "0xc3c16ee40000000000000000000000000000000000000000000000000000000000000040000000000000000000000000000000000000000000000000000000000000074000000000000000000000000000000000000000000000000000000000000000a0000000000000000000000000000000000000000000000000000000000000000100000000000000000000000000000000000000000000000000000000000000000000000000000000000000000000000000000000000000000000000000000000000000000000000000000000000000000000000000000000000000000000000000000000000000000000000000000000000000000000000000000000000000400000000000000000000000000000000000000000000000000000000000000001000000000000000000000000000000000000000000000000000000000000000300000000000000000000000000000000000000000000000000000000000000600000000000000000000000000000000000000000000000000000000000000120000000000000000000000000000000000000000000000000000000000000046000000000000000000000000021c23ba0ec49c9440cd259ccb48ff9d06cd16522000000000000000000000000000000000000000000000000000000000000000000000000000000000000000000000000000000000000000000000000000000600000000000000000000000000000000000000000000000000000000000000024bda734c63987614dda8648d57c5da041fd60b5b726c408043f2b9875a0a076c6609487ec000000000000000000000000000000000000000000000000000000000000000000000000000000004529a01c7a0410167c5740c487a8de60232617bf0000000000000000000000000000000000000000000000000000000000000000000000000000000000000000000000000000000000000000000000000000006000000000000000000000000000000000000000000000000000000000000002a4dd46508f0000000000000000000000000000000000000000000000000000000000000040000000000000000000000000000000000000000000000000000000006987fb670000000000000000000000000000000000000000000000000000000000000240000000000000000000000000000000000000000000000000000000000000004000000000000000000000000000000000000000000000000000000000000000800000000000000000000000000000000000000000000000000000000000000002011100000000000000000000000000000000000000000000000000000000000000000000000000000000000000000000000000000000000000000000000000020000000000000000000000000000000000000000000000000000000000000040000000000000000000000000000000000000000000000000000000000000012000000000000000000000000000000000000000000000000000000000000000c00000000000000000000000000000000000000000000000000000000000259a9e00000000000000000000000000000000000000000000000000000000000f6950000000000000000000000000000000000000000000000000000000000007b444000000000000000000000000000000000000000000000000000000000007b44400000000000000000000000000000000000000000000000000000000000000a000000000000000000000000000000000000000000000000000000000000000000000000000000000000000000000000000000000000000000000000000000060000000000000000000000000078d782b760474a361dda0af3839290b0ef57ad6000000000000000000000000588ce4f028d8e7b53b687865d6a67b3a54c7551800000000000000000000000032d520c1b7fd3fffead470de6678be0734cc25850000000000000000000000000000000000000000000000000000000000000000000000000000000032d520c1b7fd3fffead470de6678be0734cc25850000000000000000000000000000000000000000000000000000000000000000000000000000000000000000000000000000000000000000000000000000006000000000000000000000000000000000000000000000000000000000000001049ff0e279000000000000000000000000078d782b760474a361dda0af3839290b0ef57ad6000000000000000000000000588ce4f028d8e7b53b687865d6a67b3a54c75518000000000000000000000000000000000000000000000000000000000000271000000000000000000000000000000000000000000000000000000000000000c80000000000000000000000000000000000000000000000000000000000000000000000000000000000000000588ce4f028d8e7b53b687865d6a67b3a54c755180000000000000000000000005992fe461f81c8e0affa95b831e50e9b3854ba0e00000000000000000000000000000000000000000000000000000000001e84800000000000000000000000000000000000000000000000000000000000000000000000000000000000000000000000000000000000000000000000e0000000000000000000000000000000000000000000000000000000000000004000000000000000000000000000000000000000000000000000000000000000c00000000000000000000000000000000000000000000000000000000000000041636b64091748c47aeb1d329de289306d0acc0f05d1027d6861234c79de1e16c51ceeabb65c46502b14e32de4ae78c2ab0ce2bcebc5be239eb0d1d3b35b7e39271b000000000000000000000000000000000000000000000000000000000000000000000000000000000000000000000000000000000000000000000000000000",
        "nonce": "0x1",
        "chainId": "0x82"
      },
      "additionalContracts": [
        {
          "transactionType": "CREATE2",
          "contractName": null,
          "address": "0x32d520c1b7fd3fffead470de6678be0734cc2585",
          "initCode": "0x3d602d80600a3d3981f3363d3d373d3d3d363d7321c23ba0ec49c9440cd259ccb48ff9d06cd165225af43d82803e903d91602b57fd5bf3"
        }
      ],
      "isFixedGasLimit": false
    }
  ],
  "receipts": [],
  "libraries": [],
  "pending": [],
  "returns": {},
  "timestamp": 1770519360453,
  "chain": 130,
  "commit": "1a7e9f6"
}