{
  "transactions": [
    {
      "hash": "0x5e03a1bc8d142c57ec3df726ee64557c2ebb371ccc717d4389c62bce27e4db37",
      "transactionType": "CALL",
      "contractName": null,
      "contractAddress": "0xd877909f69922e0a2e49d8aa07da459a18272de9",
      "function": "execute((((address,uint256,bytes)[],bool),uint256,bytes32,address,uint256),bytes)",
      "arguments": [
        "(([(0x21c23bA0ec49c9440CD259cCB48ff9D06CD16522, 0, 0xbda734c6122eaddda7850254c63342baddeb3f7f7c6ddf5d5f91814825a78e1e7cfb3142), (0x4529A01c7A0410167c5740C487A8DE60232617bf, 0, 0xdd46508f0000000000000000000000000000000000000000000000000000000000000040000000000000000000000000000000000000000000000000000000006987fb010000000000000000000000000000000000000000000000000000000000000240000000000000000000000000000000000000000000000000000000000000004000000000000000000000000000000000000000000000000000000000000000800000000000000000000000000000000000000000000000000000000000000002011100000000000000000000000000000000000000000000000000000000000000000000000000000000000000000000000000000000000000000000000000020000000000000000000000000000000000000000000000000000000000000040000000000000000000000000000000000000000000000000000000000000012000000000000000000000000000000000000000000000000000000000000000c00000000000000000000000000000000000000000000000000000000000259a9e00000000000000000000000000000000000000000000000000000000000f6950000000000000000000000000000000000000000000000000000000000007b444000000000000000000000000000000000000000000000000000000000007b44400000000000000000000000000000000000000000000000000000000000000a000000000000000000000000000000000000000000000000000000000000000000000000000000000000000000000000000000000000000000000000000000060000000000000000000000000078d782b760474a361dda0af3839290b0ef57ad6000000000000000000000000588ce4f028d8e7b53b687865d6a67b3a54c75518000000000000000000000000ef406287948168ef49862a25e57254f244c00725), (0xEF406287948168eF49862A25e57254f244c00725, 0, 0x9ff0e279000000000000000000000000078d782b760474a361dda0af3839290b0ef57ad6000000000000000000000000588ce4f028d8e7b53b687865d6a67b3a54c75518000000000000000000000000000000000000000000000000000000000000271000000000000000000000000000000000000000000000000000000000000000c80000000000000000000000000000000000000000000000000000000000000000000000000000000000000000588ce4f028d8e7b53b687865d6a67b3a54c755180000000000000000000000005992fe461f81c8e0affa95b831e50e9b3854ba0e00000000000000000000000000000000000000000000000000000000001e8480)], true), 0, 0x0000000000000000000000000000000000000000000000000000000000000000, 0x0000000000000000000000000000000000000000, 0)",
        "0x000000000000000000000000000000000000000000000000000000000000004000000000000000000000000000000000000000000000000000000000000000c000000000000000000000000000000000000000000000000000000000000000417257d31fcd89adf7d1de2e151284729de440f831da73ce2e6124e6daece98d7863e1c72a0aafe0a90a4b0e562d881e3493323b46b3ad47dcfed7f2eae467efe01b000000000000000000000000000000000000000000000000000000000000000000000000000000000000000000000000000000000000000000000000000000"
      ],
      "transaction": {
        "from": "0x5992fe461f81c8e0affa95b831e50e9b3854ba0e",
        "to": "0xd877909f69922e0a2e49d8aa07da459a18272de9",
        "gas": "0x7aeba",
        "value": "0x0",
        "input": "0xc3c16ee40000000000000000000000000000000000000000000000000000000000000040000000000000000000000000000000000000000000000000000000000000074000000000000000000000000000000000000000000000000000000000000000a0000000000000000000000000000000000000000000000000000000000000000000000000000000000000000000000000000000000000000000000000000000000000000000000000000000000000000000000000000000000000000000000000000000000000000000000000000000000000000000000000000000000000000000000000000000000000000000000000000000000000000000000000000000400000000000000000000000000000000000000000000000000000000000000001000000000000000000000000000000000000000000000000000000000000000300000000000000000000000000000000000000000000000000000000000000600000000000000000000000000000000000000000000000000000000000000120000000000000000000000000000000000000000000000000000000000000046000000000000000000000000021c23ba0ec49c9440cd259ccb48ff9d06cd16522000000000000000000000000000000000000000000000000000000000000000000000000000000000000000000000000000000000000000000000000000000600000000000000000000000000000000000000000000000000000000000000024bda734c6122eaddda7850254c63342baddeb3f7f7c6ddf5d5f91814825a78e1e7cfb3142000000000000000000000000000000000000000000000000000000000000000000000000000000004529a01c7a0410167c5740c487a8de60232617bf0000000000000000000000000000000000000000000000000000000000000000000000000000000000000000000000000000000000000000000000000000006000000000000000000000000000000000000000000000000000000000000002a4dd46508f0000000000000000000000000000000000000000000000000000000000000040000000000000000000000000000000000000000000000000000000006987fb010000000000000000000000000000000000000000000000000000000000000240000000000000000000000000000000000000000000000000000000000000004000000000000000000000000000000000000000000000000000000000000000800000000000000000000000000000000000000000000000000000000000000002011100000000000000000000000000000000000000000000000000000000000000000000000000000000000000000000000000000000000000000000000000020000000000000000000000000000000000000000000000000000000000000040000000000000000000000000000000000000000000000000000000000000012000000000000000000000000000000000000000000000000000000000000000c00000000000000000000000000000000000000000000000000000000000259a9e00000000000000000000000000000000000000000000000000000000000f6950000000000000000000000000000000000000000000000000000000000007b444000000000000000000000000000000000000000000000000000000000007b44400000000000000000000000000000000000000000000000000000000000000a000000000000000000000000000000000000000000000000000000000000000000000000000000000000000000000000000000000000000000000000000000060000000000000000000000000078d782b760474a361dda0af3839290b0ef57ad6000000000000000000000000588ce4f028d8e7b53b687865d6a67b3a54c75518000000000000000000000000ef406287948168ef49862a25e57254f244c0072500000000000000000000000000000000000000000000000000000000000000000000000000000000ef406287948168ef49862a25e57254f244c007250000000000000000000000000000000000000000000000000000000000000000000000000000000000000000000000000000000000000000000000000000006000000000000000000000000000000000000000000000000000000000000001049ff0e279000000000000000000000000078d782b760474a361dda0af3839290b0ef57ad6000000000000000000000000588ce4f028d8e7b53b687865d6a67b3a54c75518000000000000000000000000000000000000000000000000000000000000271000000000000000000000000000000000000000000000000000000000000000c80000000000000000000000000000000000000000000000000000000000000000000000000000000000000000588ce4f028d8e7b53b687865d6a67b3a54c755180000000000000000000000005992fe461f81c8e0affa95b831e50e9b3854ba0e00000000000000000000000000000000000000000000000000000000001e84800000000000000000000000000000000000000000000000000000000000000000000000000000000000000000000000000000000000000000000000e0000000000000000000000000000000000000000000000000000000000000004000000000000000000000000000000000000000000000000000000000000000c000000000000000000000000000000000000000000000000000000000000000417257d31fcd89adf7d1de2e151284729de440f831da73ce2e6124e6daece98d7863e1c72a0aafe0a90a4b0e562d881e3493323b46b3ad47dcfed7f2eae467efe01b000000000000000000000000000000000000000000000000000000000000000000000000000000000000000000000000000000000000000000000000000000",
        "nonce": "0x0",
        "chainId": "0x82"
      },
      "additionalContracts": [
        {
          "transactionType": "CREATE2",
          "contractName": null,
          "address": "0xef406287948168ef49862a25e57254f244c00725",
          "initCode": "0x3d602d80600a3d3981f3363d3d373d3d3d363d7321c23ba0ec49c9440cd259ccb48ff9d06cd165225af43d82803e903d91602b57fd5bf3"
        }
      ],
      "isFixedGasLimit": false
    }
  ],
  "receipts": [
    {
      "status": "0x1",
      "cumulativeGasUsed": "0x8b4af",
      "logs": [
        {
          "address": "0xbdb5201565925ae934a5622f0e7091affceed5eb",
          "topics": [
            "0xa407b0cce438854eda73b129d429b598518726d6eb1c0f880ca7f1eede073c21",
            "0x000000000000000000000000ef406287948168ef49862a25e57254f244c00725",
            "0x00000000000000000000000021c23ba0ec49c9440cd259ccb48ff9d06cd16522"
          ],
          "data": "0x",
          "blockHash": "0x0000000000000000000000000000000000000000000000000000000000000000",
          "blockNumber": "0x25edb2a",
          "blockTimestamp": "0x6987faf1",
          "transactionHash": "0x5e03a1bc8d142c57ec3df726ee64557c2ebb371ccc717d4389c62bce27e4db37",
          "transactionIndex": "0x4",
          "logIndex": "0x1",
          "removed": false
        },
        {
          "address": "0x1f98400000000000000000000000000000000004",
          "topics": [
            "0xf208f4912782fd25c7f114ca3723a2d5dd6f3bcc3ac8db5af63baa85f711d5ec",
            "0xca8c2a7142381bfc2deb7334975d52393a686bb72c9110e8c5d57269c2059f8b",
            "0x0000000000000000000000004529a01c7a0410167c5740c487a8de60232617bf"
          ],
          "data": "0xfffffffffffffffffffffffffffffffffffffffffffffffffffffffffff2766000000000000000000000000000000000000000000000000000000000000d89a0fffffffffffffffffffffffffffffffffffffffffffffffffffffffffff096b00000000000000000000000000000000000000000000000000000000000259a9e",
          "blockHash": "0x0000000000000000000000000000000000000000000000000000000000000000",
          "blockNumber": "0x25edb2a",
          "blockTimestamp": "0x6987faf1",
          "transactionHash": "0x5e03a1bc8d142c57ec3df726ee64557c2ebb371ccc717d4389c62bce27e4db37",
          "transactionIndex": "0x4",
          "logIndex": "0x2",
          "removed": false
        },
        {
          "address": "0x078d782b760474a361dda0af3839290b0ef57ad6",
          "topics": [
            "0xddf252ad1be2c89b69c2b068fc378daa952ba7f163c4a11628f55a4df523b3ef",
            "0x0000000000000000000000001f98400000000000000000000000000000000004",
            "0x000000000000000000000000ef406287948168ef49862a25e57254f244c00725"
          ],
          "data": "0x00000000000000000000000000000000000000000000000000000000000f559b",
          "blockHash": "0x0000000000000000000000000000000000000000000000000000000000000000",
          "blockNumber": "0x25edb2a",
          "blockTimestamp": "0x6987faf1",
          "transactionHash": "0x5e03a1bc8d142c57ec3df726ee64557c2ebb371ccc717d4389c62bce27e4db37",
          "transactionIndex": "0x4",
          "logIndex": "0x3",
          "removed": false
        },
        {
          "address": "0x588ce4f028d8e7b53b687865d6a67b3a54c75518",
          "topics": [
            "0xddf252ad1be2c89b69c2b068fc378daa952ba7f163c4a11628f55a4df523b3ef",
            "0x0000000000000000000000001f98400000000000000000000000000000000004",
            "0x000000000000000000000000ef406287948168ef49862a25e57254f244c00725"
          ],
          "data": "0x00000000000000000000000000000000000000000000000000000000000f7d1d",
          "blockHash": "0x0000000000000000000000000000000000000000000000000000000000000000",
          "blockNumber": "0x25edb2a",
          "blockTimestamp": "0x6987faf1",
          "transactionHash": "0x5e03a1bc8d142c57ec3df726ee64557c2ebb371ccc717d4389c62bce27e4db37",
          "transactionIndex": "0x4",
          "logIndex": "0x4",
          "removed": false
        },
        {
          "address": "0x078d782b760474a361dda0af3839290b0ef57ad6",
          "topics": [
            "0x8c5be1e5ebec7d5bd14f71427d1e84f3dd0314c0f7b2291e5b200ac8c7c3b925",
            "0x000000000000000000000000ef406287948168ef49862a25e57254f244c00725",
            "0x00000000000000000000000067c9c6050978c1582e4a633760b80ca2eff4015a"
          ],
          "data": "0x00000000000000000000000000000000000000000000000000000000000f559b",
          "blockHash": "0x0000000000000000000000000000000000000000000000000000000000000000",
          "blockNumber": "0x25edb2a",
          "blockTimestamp": "0x6987faf1",
          "transactionHash": "0x5e03a1bc8d142c57ec3df726ee64557c2ebb371ccc717d4389c62bce27e4db37",
          "transactionIndex": "0x4",
          "logIndex": "0x5",
          "removed": false
        },
        {
          "address": "0x1f98400000000000000000000000000000000004",
          "topics": [
            "0x40e9cecb9f5f1f1c5b9c97dec2917b7ee92e57ba5563708daca94dd84ad7112f",
            "0xca8c2a7142381bfc2deb7334975d52393a686bb72c9110e8c5d57269c2059f8b",
            "0x00000000000000000000000067c9c6050978c1582e4a633760b80ca2eff4015a"
          ],
          "data": "0xfffffffffffffffffffffffffffffffffffffffffffffffffffffffffff0aa6500000000000000000000000000000000000000000000000000000000000f45df000000000000000000000000000000000000000100437323b46bcd01b24ff5e7000000000000000000000000000000000000000000000000000000000ef3b8f100000000000000000000000000000000000000000000000000000000000000140000000000000000000000000000000000000000000000000000000000002710",
          "blockHash": "0x0000000000000000000000000000000000000000000000000000000000000000",
          "blockNumber": "0x25edb2a",
          "blockTimestamp": "0x6987faf1",
          "transactionHash": "0x5e03a1bc8d142c57ec3df726ee64557c2ebb371ccc717d4389c62bce27e4db37",
          "transactionIndex": "0x4",
          "logIndex": "0x6",
          "removed": false
        },
        {
          "address": "0x078d782b760474a361dda0af3839290b0ef57ad6",
          "topics": [
            "0xddf252ad1be2c89b69c2b068fc378daa952ba7f163c4a11628f55a4df523b3ef",
            "0x000000000000000000000000ef406287948168ef49862a25e57254f244c00725",
            "0x0000000000000000000000001f98400000000000000000000000000000000004"
          ],
          "data": "0x00000000000000000000000000000000000000000000000000000000000f559b",
          "blockHash": "0x0000000000000000000000000000000000000000000000000000000000000000",
          "blockNumber": "0x25edb2a",
          "blockTimestamp": "0x6987faf1",
          "transactionHash": "0x5e03a1bc8d142c57ec3df726ee64557c2ebb371ccc717d4389c62bce27e4db37",
          "transactionIndex": "0x4",
          "logIndex": "0x7",
          "removed": false
        },
        {
          "address": "0x588ce4f028d8e7b53b687865d6a67b3a54c75518",
          "topics": [
            "0xddf252ad1be2c89b69c2b068fc378daa952ba7f163c4a11628f55a4df523b3ef",
            "0x0000000000000000000000001f98400000000000000000000000000000000004",
            "0x000000000000000000000000ef406287948168ef49862a25e57254f244c00725"
          ],
          "data": "0x00000000000000000000000000000000000000000000000000000000000f45df",
          "blockHash": "0x0000000000000000000000000000000000000000000000000000000000000000",
          "blockNumber": "0x25edb2a",
          "blockTimestamp": "0x6987faf1",
          "transactionHash": "0x5e03a1bc8d142c57ec3df726ee64557c2ebb371ccc717d4389c62bce27e4db37",
          "transactionIndex": "0x4",
          "logIndex": "0x8",
          "removed": false
        },
        {
          "address": "0x588ce4f028d8e7b53b687865d6a67b3a54c75518",
          "topics": [
            "0xddf252ad1be2c89b69c2b068fc378daa952ba7f163c4a11628f55a4df523b3ef",
            "0x000000000000000000000000ef406287948168ef49862a25e57254f244c00725",
            "0x0000000000000000000000005992fe461f81c8e0affa95b831e50e9b3854ba0e"
          ],
          "data": "0x00000000000000000000000000000000000000000000000000000000001e8480",
          "blockHash": "0x0000000000000000000000000000000000000000000000000000000000000000",
          "blockNumber": "0x25edb2a",
          "blockTimestamp": "0x6987faf1",
          "transactionHash": "0x5e03a1bc8d142c57ec3df726ee64557c2ebb371ccc717d4389c62bce27e4db37",
          "transactionIndex": "0x4",
          "logIndex": "0x9",
          "removed": false
        }
      ],
      "logsBloom": "0x00000000000000000000000000000000000000000000400000000000000000000000000000000010000000000000000002080100040000010000000000200000000000000000000000000088000000000400200000000020000000000000100000000000000002000000000000000400000000000801000000000010000000000000010801002000000000010000000000000000000000001000008000004000020004808000000000000000100000000000000001040000040000000080000000400002000008000000000000000000400000000000000000000000000000000010000000008000004000002000000204402000000000000000000000000000",
      "type": "0x2",
      "transactionHash": "0x5e03a1bc8d142c57ec3df726ee64557c2ebb371ccc717d4389c62bce27e4db37",
      "transactionIndex": "0x4",
      "blockHash": "0x0000000000000000000000000000000000000000000000000000000000000000",
      "blockNumber": "0x25edb2a",
      "gasUsed": "0x58fe0",
      "effectiveGasPrice": "0xb6720",
      "blobGasUsed": "0x2f440",
      "from": "0x5992fe461f81c8e0affa95b831e50e9b3854ba0e",
      "to": "0xd877909f69922e0a2e49d8aa07da459a18272de9",
      "contractAddress": null,
      "daFootprintGasScalar": "0x190",
      "l1BaseFeeScalar": "0x7d0",
      "l1BlobBaseFee": "0x4f5971",
      "l1BlobBaseFeeScalar": "0xdbba0",
      "l1Fee": "0x3f960a0d",
      "l1GasPrice": "0x5c2453c",
      "l1GasUsed": "0x1e46"
    }
  ],
  "libraries": [],
  "pending": [],
  "returns": {},
  "timestamp": 1770519280639,
  "chain": 130,
  "commit": "1a7e9f6"
}