{
  "transactions": [
    {
      "hash": null,
      "transactionType": "CALL",
      "contractName": null,
      "contractAddress": "0xd877909f69922e0a2e49d8aa07da459a18272de9",
      "function": "execute((((address,uint256,bytes)[],bool),uint256,bytes32,address,uint256),bytes)",
      "arguments": [
        "(([(0x21c23bA0ec49c9440CD259cCB48ff9D06CD16522, 0, 0xbda734c6546a39440423922012172aa1b9a0fe8f3746a68bcf2360df5c498180d481e6dc), (0x4529A01c7A0410167c5740C487A8DE60232617bf, 0, 0xdd46508f0000000000000000000000000000000000000000000000000000000000000040000000000000000000000000000000000000000000000000000000006987fa9d0000000000000000000000000000000000000000000000000000000000000240000000000000000000000000000000000000000000000000000000000000004000000000000000000000000000000000000000000000000000000000000000800000000000000000000000000000000000000000000000000000000000000002011100000000000000000000000000000000000000000000000000000000000000000000000000000000000000000000000000000000000000000000000000020000000000000000000000000000000000000000000000000000000000000040000000000000000000000000000000000000000000000000000000000000012000000000000000000000000000000000000000000000000000000000000000c00000000000000000000000000000000000000000000000000000000000259a9e00000000000000000000000000000000000000000000000000000000000f6950000000000000000000000000000000000000000000000000000000000007b444000000000000000000000000000000000000000000000000000000000007b44400000000000000000000000000000000000000000000000000000000000000a000000000000000000000000000000000000000000000000000000000000000000000000000000000000000000000000000000000000000000000000000000060000000000000000000000000078d782b760474a361dda0af3839290b0ef57ad6000000000000000000000000588ce4f028d8e7b53b687865d6a67b3a54c75518000000000000000000000000bdd92fc8ab0d2520533d0f72429bd6aa83de72bc), (0xbDD92Fc8aB0D2520533d0F72429bD6Aa83De72BC, 0, 0x9ff0e279000000000000000000000000078d782b760474a361dda0af3839290b0ef57ad6000000000000000000000000588ce4f028d8e7b53b687865d6a67b3a54c75518000000000000000000000000000000000000000000000000000000000000271000000000000000000000000000000000000000000000000000000000000000c80000000000000000000000000000000000000000000000000000000000000000000000000000000000000000588ce4f028d8e7b53b687865d6a67b3a54c755180000000000000000000000005992fe461f81c8e0affa95b831e50e9b3854ba0e00000000000000000000000000000000000000000000000000000000001e8480)], true), 0, 0x0000000000000000000000000000000000000000000000000000000000000000, 0x0000000000000000000000000000000000000000, 0)",
        "0x000000000000000000000000000000000000000000000000000000000000004000000000000000000000000000000000000000000000000000000000000000c00000000000000000000000000000000000000000000000000000000000000041f21066f2b331ce8ea7a322a1be9b8fc419e199ef4fe948c13615f92dfb8aa3682a6f6da19bd5b9381b1fed6b9c6f22e8725e098c341f87ef9c51adc4ef1c99981c000000000000000000000000000000000000000000000000000000000000000000000000000000000000000000000000000000000000000000000000000000"
      ],
      "transaction": {
        "from": "0x5992fe461f81c8e0affa95b831e50e9b3854ba0e",
        "to": "0xd877909f69922e0a2e49d8aa07da459a18272de9",
        "gas": "0x7aeba",
        "value": "0x0",
        "input": "0xc3c16ee40000000000000000000000000000000000000000000000000000000000000040000000000000000000000000000000000000000000000000000000000000074000000000000000000000000000000000000000000000000000000000000000a0000000000000000000000000000000000000000000000000000000000000000000000000000000000000000000000000000000000000000000000000000000000000000000000000000000000000000000000000000000000000000000000000000000000000000000000000000000000000000000000000000000000000000000000000000000000000000000000000000000000000000000000000000000400000000000000000000000000000000000000000000000000000000000000001000000000000000000000000000000000000000000000000000000000000000300000000000000000000000000000000000000000000000000000000000000600000000000000000000000000000000000000000000000000000000000000120000000000000000000000000000000000000000000000000000000000000046000000000000000000000000021c23ba0ec49c9440cd259ccb48ff9d06cd16522000000000000000000000000000000000000000000000000000000000000000000000000000000000000000000000000000000000000000000000000000000600000000000000000000000000000000000000000000000000000000000000024bda734c6546a39440423922012172aa1b9a0fe8f3746a68bcf2360df5c498180d481e6dc000000000000000000000000000000000000000000000000000000000000000000000000000000004529a01c7a0410167c5740c487a8de60232617bf0000000000000000000000000000000000000000000000000000000000000000000000000000000000000000000000000000000000000000000000000000006000000000000000000000000000000000000000000000000000000000000002a4dd46508f0000000000000000000000000000000000000000000000000000000000000040000000000000000000000000000000000000000000000000000000006987fa9d0000000000000000000000000000000000000000000000000000000000000240000000000000000000000000000000000000000000000000000000000000004000000000000000000000000000000000000000000000000000000000000000800000000000000000000000000000000000000000000000000000000000000002011100000000000000000000000000000000000000000000000000000000000000000000000000000000000000000000000000000000000000000000000000020000000000000000000000000000000000000000000000000000000000000040000000000000000000000000000000000000000000000000000000000000012000000000000000000000000000000000000000000000000000000000000000c00000000000000000000000000000000000000000000000000000000000259a9e00000000000000000000000000000000000000000000000000000000000f6950000000000000000000000000000000000000000000000000000000000007b444000000000000000000000000000000000000000000000000000000000007b44400000000000000000000000000000000000000000000000000000000000000a000000000000000000000000000000000000000000000000000000000000000000000000000000000000000000000000000000000000000000000000000000060000000000000000000000000078d782b760474a361dda0af3839290b0ef57ad6000000000000000000000000588ce4f028d8e7b53b687865d6a67b3a54c75518000000000000000000000000bdd92fc8ab0d2520533d0f72429bd6aa83de72bc00000000000000000000000000000000000000000000000000000000000000000000000000000000bdd92fc8ab0d2520533d0f72429bd6aa83de72bc0000000000000000000000000000000000000000000000000000000000000000000000000000000000000000000000000000000000000000000000000000006000000000000000000000000000000000000000000000000000000000000001049ff0e279000000000000000000000000078d782b760474a361dda0af3839290b0ef57ad6000000000000000000000000588ce4f028d8e7b53b687865d6a67b3a54c75518000000000000000000000000000000000000000000000000000000000000271000000000000000000000000000000000000000000000000000000000000000c80000000000000000000000000000000000000000000000000000000000000000000000000000000000000000588ce4f028d8e7b53b687865d6a67b3a54c755180000000000000000000000005992fe461f81c8e0affa95b831e50e9b3854ba0e00000000000000000000000000000000000000000000000000000000001e84800000000000000000000000000000000000000000000000000000000000000000000000000000000000000000000000000000000000000000000000e0000000000000000000000000000000000000000000000000000000000000004000000000000000000000000000000000000000000000000000000000000000c00000000000000000000000000000000000000000000000000000000000000041f21066f2b331ce8ea7a322a1be9b8fc419e199ef4fe948c13615f92dfb8aa3682a6f6da19bd5b9381b1fed6b9c6f22e8725e098c341f87ef9c51adc4ef1c99981c000000000000000000000000000000000000000000000000000000000000000000000000000000000000000000000000000000000000000000000000000000",
        "nonce": "0x0",
        "chainId": "0x82"
      },
      "additionalContracts": [
        {
          "transactionType": "CREATE2",
          "contractName": null,
          "address": "0xbdd92fc8ab0d2520533d0f72429bd6aa83de72bc",
          "initCode": "0x3d602d80600a3d3981f3363d3d373d3d3d363d7321c23ba0ec49c9440cd259ccb48ff9d06cd165225af43d82803e903d91602b57fd5bf3"
        }
      ],
      "isFixedGasLimit": false
    }
  ],
  "receipts": [],
  "libraries": [],
  "pending": [],
  "returns": {},
  "timestamp": 1770519190967,
  "chain": 130,
  "commit": "1a7e9f6"
}