{
  "transactions": [
    {
      "hash": "0xa3aa484196e6ddc2ff4913106438d7e78c00118f5b4231b4481e54724a3c2fc0",
      "transactionType": "CALL",
      "contractName": null,
      "contractAddress": "0xd877909f69922e0a2e49d8aa07da459a18272de9",
      "function": "execute((((address,uint256,bytes)[],bool),uint256,bytes32,address,uint256),bytes)",
      "arguments": [
        "(([(0x8a3e1e1680cF2279D9eCa6E55e4E8897363Ea60d, 0, 0xbda734c62bb4f8c7ad1bf56dd23290e174fb9e729daf90a18f5164bad0aa3abdab183c92), (0x7A4a5c919aE2541AeD11041A1AEeE68f1287f95b, 0, 0xdd46508f0000000000000000000000000000000000000000000000000000000000000040000000000000000000000000000000000000000000000000000000006985e6f50000000000000000000000000000000000000000000000000000000000000240000000000000000000000000000000000000000000000000000000000000004000000000000000000000000000000000000000000000000000000000000000800000000000000000000000000000000000000000000000000000000000000002011100000000000000000000000000000000000000000000000000000000000000000000000000000000000000000000000000000000000000000000000000020000000000000000000000000000000000000000000000000000000000000040000000000000000000000000000000000000000000000000000000000000012000000000000000000000000000000000000000000000000000000000000000c0000000000000000000000000000000000000000000000000000000000003c8890000000000000000000000000000000000000000000000000011f0f2c01da0000000000000000000000000000000000000000000000000000008f8770c02ec000000000000000000000000000000000000000000000000000008f8770c02ec0000000000000000000000000000000000000000000000000000000000000000a00000000000000000000000000000000000000000000000000000000000000000000000000000000000000000000000000000000000000000000000000000006000000000000000000000000055d398326f99059ff775485246999027b31979550000000000000000000000008ac76a51cc950d9822d68b83fe1ad97b32cd580d00000000000000000000000005775fe5daafd3b9c69065464fed03d19eefc27d), (0x05775FE5daafD3b9C69065464fED03d19eEFc27D, 0, 0x9ff0e27900000000000000000000000055d398326f99059ff775485246999027b31979550000000000000000000000008ac76a51cc950d9822d68b83fe1ad97b32cd580d000000000000000000000000000000000000000000000000000000000000271000000000000000000000000000000000000000000000000000000000000000c800000000000000000000000000000000000000000000000000000000000000000000000000000000000000008ac76a51cc950d9822d68b83fe1ad97b32cd580d0000000000000000000000005992fe461f81c8e0affa95b831e50e9b3854ba0e000000000000000000000000000000000000000000000000002386f26fc10000)], true), 6, 0x0000000000000000000000000000000000000000000000000000000000000000, 0x0000000000000000000000000000000000000000, 0)",
        "0x000000000000000000000000000000000000000000000000000000000000004000000000000000000000000000000000000000000000000000000000000000c00000000000000000000000000000000000000000000000000000000000000041aa52f1cb0173f8d6fd373207c1a411a480a4d27675fc157a6f029b90ac5105be591b485814d9378be25fbd8abc8b2be86494f9098958d00937b82a8aa2de033f1b000000000000000000000000000000000000000000000000000000000000000000000000000000000000000000000000000000000000000000000000000000"
      ],
      "transaction": {
        "from": "0x5992fe461f81c8e0affa95b831e50e9b3854ba0e",
        "to": "0xd877909f69922e0a2e49d8aa07da459a18272de9",
        "gas": "0x6ec5a",
        "value": "0x0",
        "input": "0xc3c16ee40000000000000000000000000000000000000000000000000000000000000040000000000000000000000000000000000000000000000000000000000000074000000000000000000000000000000000000000000000000000000000000000a000000000000000000000000000000000000000000000000000000000000000060000000000000000000000000000000000000000000000000000000000000000000000000000000000000000000000000000000000000000000000000000000000000000000000000000000000000000000000000000000000000000000000000000000000000000000000000000000000000000000000000000000000000040000000000000000000000000000000000000000000000000000000000000000100000000000000000000000000000000000000000000000000000000000000030000000000000000000000000000000000000000000000000000000000000060000000000000000000000000000000000000000000000000000000000000012000000000000000000000000000000000000000000000000000000000000004600000000000000000000000008a3e1e1680cf2279d9eca6e55e4e8897363ea60d000000000000000000000000000000000000000000000000000000000000000000000000000000000000000000000000000000000000000000000000000000600000000000000000000000000000000000000000000000000000000000000024bda734c62bb4f8c7ad1bf56dd23290e174fb9e729daf90a18f5164bad0aa3abdab183c92000000000000000000000000000000000000000000000000000000000000000000000000000000007a4a5c919ae2541aed11041a1aeee68f1287f95b0000000000000000000000000000000000000000000000000000000000000000000000000000000000000000000000000000000000000000000000000000006000000000000000000000000000000000000000000000000000000000000002a4dd46508f0000000000000000000000000000000000000000000000000000000000000040000000000000000000000000000000000000000000000000000000006985e6f50000000000000000000000000000000000000000000000000000000000000240000000000000000000000000000000000000000000000000000000000000004000000000000000000000000000000000000000000000000000000000000000800000000000000000000000000000000000000000000000000000000000000002011100000000000000000000000000000000000000000000000000000000000000000000000000000000000000000000000000000000000000000000000000020000000000000000000000000000000000000000000000000000000000000040000000000000000000000000000000000000000000000000000000000000012000000000000000000000000000000000000000000000000000000000000000c0000000000000000000000000000000000000000000000000000000000003c8890000000000000000000000000000000000000000000000000011f0f2c01da0000000000000000000000000000000000000000000000000000008f8770c02ec000000000000000000000000000000000000000000000000000008f8770c02ec0000000000000000000000000000000000000000000000000000000000000000a00000000000000000000000000000000000000000000000000000000000000000000000000000000000000000000000000000000000000000000000000000006000000000000000000000000055d398326f99059ff775485246999027b31979550000000000000000000000008ac76a51cc950d9822d68b83fe1ad97b32cd580d00000000000000000000000005775fe5daafd3b9c69065464fed03d19eefc27d0000000000000000000000000000000000000000000000000000000000000000000000000000000005775fe5daafd3b9c69065464fed03d19eefc27d0000000000000000000000000000000000000000000000000000000000000000000000000000000000000000000000000000000000000000000000000000006000000000000000000000000000000000000000000000000000000000000001049ff0e27900000000000000000000000055d398326f99059ff775485246999027b31979550000000000000000000000008ac76a51cc950d9822d68b83fe1ad97b32cd580d000000000000000000000000000000000000000000000000000000000000271000000000000000000000000000000000000000000000000000000000000000c800000000000000000000000000000000000000000000000000000000000000000000000000000000000000008ac76a51cc950d9822d68b83fe1ad97b32cd580d0000000000000000000000005992fe461f81c8e0affa95b831e50e9b3854ba0e000000000000000000000000000000000000000000000000002386f26fc100000000000000000000000000000000000000000000000000000000000000000000000000000000000000000000000000000000000000000000000000e0000000000000000000000000000000000000000000000000000000000000004000000000000000000000000000000000000000000000000000000000000000c00000000000000000000000000000000000000000000000000000000000000041aa52f1cb0173f8d6fd373207c1a411a480a4d27675fc157a6f029b90ac5105be591b485814d9378be25fbd8abc8b2be86494f9098958d00937b82a8aa2de033f1b000000000000000000000000000000000000000000000000000000000000000000000000000000000000000000000000000000000000000000000000000000",
        "nonce": "0x32e",
        "chainId": "0x38"
      },
      "additionalContracts": [
        {
          "transactionType": "CREATE2",
          "contractName": null,
          "address": "0x05775fe5daafd3b9c69065464fed03d19eefc27d",
          "initCode": "0x3d602d80600a3d3981f3363d3d373d3d3d363d738a3e1e1680cf2279d9eca6e55e4e8897363ea60d5af43d82803e903d91602b57fd5bf3"
        }
      ],
      "isFixedGasLimit": false
    }
  ],
  "receipts": [
    {
      "status": "0x1",
      "cumulativeGasUsed": "0x8f0585",
      "logs": [
        {
          "address": "0x040582fc8627d0249f3f626a8a36d8649b1ec24c",
          "topics": [
            "0xa407b0cce438854eda73b129d429b598518726d6eb1c0f880ca7f1eede073c21",
            "0x00000000000000000000000005775fe5daafd3b9c69065464fed03d19eefc27d",
            "0x0000000000000000000000008a3e1e1680cf2279d9eca6e55e4e8897363ea60d"
          ],
          "data": "0x",
          "blockHash": "0x9aa61417dbd6abc7c65042ae0838f9bd41d1558bb454b4f1ff315b51a91fa341",
          "blockNumber": "0x4bf314b",
          "blockTimestamp": "0x6985e6ce",
          "transactionHash": "0xa3aa484196e6ddc2ff4913106438d7e78c00118f5b4231b4481e54724a3c2fc0",
          "transactionIndex": "0x4d",
          "logIndex": "0xee",
          "removed": false
        },
        {
          "address": "0x28e2ea090877bf75740558f6bfb36a5ffee9e9df",
          "topics": [
            "0xf208f4912782fd25c7f114ca3723a2d5dd6f3bcc3ac8db5af63baa85f711d5ec",
            "0x762126e8c4cc4efcea601b55c5a1df29723eb81832cf008a357ff9ff2c4525eb",
            "0x0000000000000000000000007a4a5c919ae2541aed11041a1aeee68f1287f95b"
          ],
          "data": "0xfffffffffffffffffffffffffffffffffffffffffffffffffffffffffff2766000000000000000000000000000000000000000000000000000000000000d89a0ffffffffffffffffffffffffffffffffffffffffffffffffffee0f0d3fe26000000000000000000000000000000000000000000000000000000000000003c889",
          "blockHash": "0x9aa61417dbd6abc7c65042ae0838f9bd41d1558bb454b4f1ff315b51a91fa341",
          "blockNumber": "0x4bf314b",
          "blockTimestamp": "0x6985e6ce",
          "transactionHash": "0xa3aa484196e6ddc2ff4913106438d7e78c00118f5b4231b4481e54724a3c2fc0",
          "transactionIndex": "0x4d",
          "logIndex": "0xef",
          "removed": false
        },
        {
          "address": "0x55d398326f99059ff775485246999027b3197955",
          "topics": [
            "0xddf252ad1be2c89b69c2b068fc378daa952ba7f163c4a11628f55a4df523b3ef",
            "0x00000000000000000000000028e2ea090877bf75740558f6bfb36a5ffee9e9df",
            "0x00000000000000000000000005775fe5daafd3b9c69065464fed03d19eefc27d"
          ],
          "data": "0x0000000000000000000000000000000000000000000000000011e698b0090616",
          "blockHash": "0x9aa61417dbd6abc7c65042ae0838f9bd41d1558bb454b4f1ff315b51a91fa341",
          "blockNumber": "0x4bf314b",
          "blockTimestamp": "0x6985e6ce",
          "transactionHash": "0xa3aa484196e6ddc2ff4913106438d7e78c00118f5b4231b4481e54724a3c2fc0",
          "transactionIndex": "0x4d",
          "logIndex": "0xf0",
          "removed": false
        },
        {
          "address": "0x8ac76a51cc950d9822d68b83fe1ad97b32cd580d",
          "topics": [
            "0xddf252ad1be2c89b69c2b068fc378daa952ba7f163c4a11628f55a4df523b3ef",
            "0x00000000000000000000000028e2ea090877bf75740558f6bfb36a5ffee9e9df",
            "0x00000000000000000000000005775fe5daafd3b9c69065464fed03d19eefc27d"
          ],
          "data": "0x0000000000000000000000000000000000000000000000000011fbc65d96d251",
          "blockHash": "0x9aa61417dbd6abc7c65042ae0838f9bd41d1558bb454b4f1ff315b51a91fa341",
          "blockNumber": "0x4bf314b",
          "blockTimestamp": "0x6985e6ce",
          "transactionHash": "0xa3aa484196e6ddc2ff4913106438d7e78c00118f5b4231b4481e54724a3c2fc0",
          "transactionIndex": "0x4d",
          "logIndex": "0xf1",
          "removed": false
        },
        {
          "address": "0x55d398326f99059ff775485246999027b3197955",
          "topics": [
            "0x8c5be1e5ebec7d5bd14f71427d1e84f3dd0314c0f7b2291e5b200ac8c7c3b925",
            "0x00000000000000000000000005775fe5daafd3b9c69065464fed03d19eefc27d",
            "0x0000000000000000000000009461852ae90c5633207283762a1b5db337fb3f44"
          ],
          "data": "0x0000000000000000000000000000000000000000000000000011e698b0090616",
          "blockHash": "0x9aa61417dbd6abc7c65042ae0838f9bd41d1558bb454b4f1ff315b51a91fa341",
          "blockNumber": "0x4bf314b",
          "blockTimestamp": "0x6985e6ce",
          "transactionHash": "0xa3aa484196e6ddc2ff4913106438d7e78c00118f5b4231b4481e54724a3c2fc0",
          "transactionIndex": "0x4d",
          "logIndex": "0xf2",
          "removed": false
        },
        {
          "address": "0x28e2ea090877bf75740558f6bfb36a5ffee9e9df",
          "topics": [
            "0x40e9cecb9f5f1f1c5b9c97dec2917b7ee92e57ba5563708daca94dd84ad7112f",
            "0x762126e8c4cc4efcea601b55c5a1df29723eb81832cf008a357ff9ff2c4525eb",
            "0x0000000000000000000000009461852ae90c5633207283762a1b5db337fb3f44"
          ],
          "data": "0xffffffffffffffffffffffffffffffffffffffffffffffffffee19674ff6f9ea0000000000000000000000000000000000000000000000000011cdf5c0b0eaee0000000000000000000000000000000000000001009740e7aad7bdaee54cb5060000000000000000000000000000000000000000000000058344591de28232d6000000000000000000000000000000000000000000000000000000000000002e0000000000000000000000000000000000000000000000000000000000002710",
          "blockHash": "0x9aa61417dbd6abc7c65042ae0838f9bd41d1558bb454b4f1ff315b51a91fa341",
          "blockNumber": "0x4bf314b",
          "blockTimestamp": "0x6985e6ce",
          "transactionHash": "0xa3aa484196e6ddc2ff4913106438d7e78c00118f5b4231b4481e54724a3c2fc0",
          "transactionIndex": "0x4d",
          "logIndex": "0xf3",
          "removed": false
        },
        {
          "address": "0x55d398326f99059ff775485246999027b3197955",
          "topics": [
            "0xddf252ad1be2c89b69c2b068fc378daa952ba7f163c4a11628f55a4df523b3ef",
            "0x00000000000000000000000005775fe5daafd3b9c69065464fed03d19eefc27d",
            "0x00000000000000000000000028e2ea090877bf75740558f6bfb36a5ffee9e9df"
          ],
          "data": "0x0000000000000000000000000000000000000000000000000011e698b0090616",
          "blockHash": "0x9aa61417dbd6abc7c65042ae0838f9bd41d1558bb454b4f1ff315b51a91fa341",
          "blockNumber": "0x4bf314b",
          "blockTimestamp": "0x6985e6ce",
          "transactionHash": "0xa3aa484196e6ddc2ff4913106438d7e78c00118f5b4231b4481e54724a3c2fc0",
          "transactionIndex": "0x4d",
          "logIndex": "0xf4",
          "removed": false
        },
        {
          "address": "0x55d398326f99059ff775485246999027b3197955",
          "topics": [
            "0x8c5be1e5ebec7d5bd14f71427d1e84f3dd0314c0f7b2291e5b200ac8c7c3b925",
            "0x00000000000000000000000005775fe5daafd3b9c69065464fed03d19eefc27d",
            "0x0000000000000000000000009461852ae90c5633207283762a1b5db337fb3f44"
          ],
          "data": "0x0000000000000000000000000000000000000000000000000000000000000000",
          "blockHash": "0x9aa61417dbd6abc7c65042ae0838f9bd41d1558bb454b4f1ff315b51a91fa341",
          "blockNumber": "0x4bf314b",
          "blockTimestamp": "0x6985e6ce",
          "transactionHash": "0xa3aa484196e6ddc2ff4913106438d7e78c00118f5b4231b4481e54724a3c2fc0",
          "transactionIndex": "0x4d",
          "logIndex": "0xf5",
          "removed": false
        },
        {
          "address": "0x8ac76a51cc950d9822d68b83fe1ad97b32cd580d",
          "topics": [
            "0xddf252ad1be2c89b69c2b068fc378daa952ba7f163c4a11628f55a4df523b3ef",
            "0x00000000000000000000000028e2ea090877bf75740558f6bfb36a5ffee9e9df",
            "0x00000000000000000000000005775fe5daafd3b9c69065464fed03d19eefc27d"
          ],
          "data": "0x0000000000000000000000000000000000000000000000000011cdf5c0b0eaee",
          "blockHash": "0x9aa61417dbd6abc7c65042ae0838f9bd41d1558bb454b4f1ff315b51a91fa341",
          "blockNumber": "0x4bf314b",
          "blockTimestamp": "0x6985e6ce",
          "transactionHash": "0xa3aa484196e6ddc2ff4913106438d7e78c00118f5b4231b4481e54724a3c2fc0",
          "transactionIndex": "0x4d",
          "logIndex": "0xf6",
          "removed": false
        },
        {
          "address": "0x8ac76a51cc950d9822d68b83fe1ad97b32cd580d",
          "topics": [
            "0xddf252ad1be2c89b69c2b068fc378daa952ba7f163c4a11628f55a4df523b3ef",
            "0x00000000000000000000000005775fe5daafd3b9c69065464fed03d19eefc27d",
            "0x0000000000000000000000005992fe461f81c8e0affa95b831e50e9b3854ba0e"
          ],
          "data": "0x000000000000000000000000000000000000000000000000002386f26fc10000",
          "blockHash": "0x9aa61417dbd6abc7c65042ae0838f9bd41d1558bb454b4f1ff315b51a91fa341",
          "blockNumber": "0x4bf314b",
          "blockTimestamp": "0x6985e6ce",
          "transactionHash": "0xa3aa484196e6ddc2ff4913106438d7e78c00118f5b4231b4481e54724a3c2fc0",
          "transactionIndex": "0x4d",
          "logIndex": "0xf7",
          "removed": false
        }
      ],
      "logsBloom": "0x00080000000000000000000000000000000000000000000000000000001000100000000000000000800000000000000000080000040000000080000000200080000000000000000001000008000000008000000000000020000000000001000000000000000000000000000000000000000000000800000000000010000000000000000801002000808080008100008000000000000000000000000001004000020004020000000001000000080000000002000040000000041000000000000000000002000000000000000000000010200000000000000000000002000000000010100000004000004000000000000014000000008000000004000000000000",
      "type": "0x2",
      "transactionHash": "0xa3aa484196e6ddc2ff4913106438d7e78c00118f5b4231b4481e54724a3c2fc0",
      "transactionIndex": "0x4d",
      "blockHash": "0x9aa61417dbd6abc7c65042ae0838f9bd41d1558bb454b4f1ff315b51a91fa341",
      "blockNumber": "0x4bf314b",
      "gasUsed": "0x50327",
      "effectiveGasPrice": "0x2faf080",
      "from": "0x5992fe461f81c8e0affa95b831e50e9b3854ba0e",
      "to": "0xd877909f69922e0a2e49d8aa07da459a18272de9",
      "contractAddress": null
    }
  ],
  "libraries": [],
  "pending": [],
  "returns": {},
  "timestamp": 1770383056616,
  "chain": 56,
  "commit": "50a2576"
}