{
  "transactions": [
    {
      "hash": "0x7edfc634fb320c548302b93a3f3cbd936ffa706876b2eab84b39c6d9d24428ec",
      "transactionType": "CALL",
      "contractName": null,
      "contractAddress": "0xd877909f69922e0a2e49d8aa07da459a18272de9",
      "function": "execute((((address,uint256,bytes)[],bool),uint256,bytes32,address,uint256),bytes)",
      "arguments": [
        "(([(0x8a3e1e1680cF2279D9eCa6E55e4E8897363Ea60d, 0, 0xbda734c6fbcb516a4470e4f0372996697d46876e9477000d7fc558b1a03109e569e3ae91), (0x7A4a5c919aE2541AeD11041A1AEeE68f1287f95b, 0, 0xdd46508f0000000000000000000000000000000000000000000000000000000000000040000000000000000000000000000000000000000000000000000000006985e5bf0000000000000000000000000000000000000000000000000000000000000240000000000000000000000000000000000000000000000000000000000000004000000000000000000000000000000000000000000000000000000000000000800000000000000000000000000000000000000000000000000000000000000002011100000000000000000000000000000000000000000000000000000000000000000000000000000000000000000000000000000000000000000000000000020000000000000000000000000000000000000000000000000000000000000040000000000000000000000000000000000000000000000000000000000000012000000000000000000000000000000000000000000000000000000000000000c0000000000000000000000000000000000000000000000000000000000003c8890000000000000000000000000000000000000000000000000011f0f2c01da0000000000000000000000000000000000000000000000000000008f8770c02ec000000000000000000000000000000000000000000000000000008f8770c02ec0000000000000000000000000000000000000000000000000000000000000000a00000000000000000000000000000000000000000000000000000000000000000000000000000000000000000000000000000000000000000000000000000006000000000000000000000000055d398326f99059ff775485246999027b31979550000000000000000000000008ac76a51cc950d9822d68b83fe1ad97b32cd580d000000000000000000000000103bfd57e4e662d7e9efe968da909232c06adc3d), (0x103Bfd57E4E662D7E9efE968DA909232C06AdC3D, 0, 0x9ff0e27900000000000000000000000055d398326f99059ff775485246999027b31979550000000000000000000000008ac76a51cc950d9822d68b83fe1ad97b32cd580d000000000000000000000000000000000000000000000000000000000000271000000000000000000000000000000000000000000000000000000000000000c800000000000000000000000000000000000000000000000000000000000000000000000000000000000000008ac76a51cc950d9822d68b83fe1ad97b32cd580d0000000000000000000000005992fe461f81c8e0affa95b831e50e9b3854ba0e000000000000000000000000000000000000000000000000002386f26fc10000)], true), 5, 0x0000000000000000000000000000000000000000000000000000000000000000, 0x0000000000000000000000000000000000000000, 0)",
        "0x000000000000000000000000000000000000000000000000000000000000004000000000000000000000000000000000000000000000000000000000000000c00000000000000000000000000000000000000000000000000000000000000041dbf8fff1f18ae4a4597c2c879ff46874ef76f3aa9f89c54b7e3c17599b5d0e562dce425b52c598ffc80815ce3751ab254d85f5bf69b5f39c7fed765d4c47c7ca1c000000000000000000000000000000000000000000000000000000000000000000000000000000000000000000000000000000000000000000000000000000"
      ],
      "transaction": {
        "from": "0x5992fe461f81c8e0affa95b831e50e9b3854ba0e",
        "to": "0xd877909f69922e0a2e49d8aa07da459a18272de9",
        "gas": "0x7548a",
        "value": "0x0",
        "input": "0xc3c16ee40000000000000000000000000000000000000000000000000000000000000040000000000000000000000000000000000000000000000000000000000000074000000000000000000000000000000000000000000000000000000000000000a000000000000000000000000000000000000000000000000000000000000000050000000000000000000000000000000000000000000000000000000000000000000000000000000000000000000000000000000000000000000000000000000000000000000000000000000000000000000000000000000000000000000000000000000000000000000000000000000000000000000000000000000000000040000000000000000000000000000000000000000000000000000000000000000100000000000000000000000000000000000000000000000000000000000000030000000000000000000000000000000000000000000000000000000000000060000000000000000000000000000000000000000000000000000000000000012000000000000000000000000000000000000000000000000000000000000004600000000000000000000000008a3e1e1680cf2279d9eca6e55e4e8897363ea60d000000000000000000000000000000000000000000000000000000000000000000000000000000000000000000000000000000000000000000000000000000600000000000000000000000000000000000000000000000000000000000000024bda734c6fbcb516a4470e4f0372996697d46876e9477000d7fc558b1a03109e569e3ae91000000000000000000000000000000000000000000000000000000000000000000000000000000007a4a5c919ae2541aed11041a1aeee68f1287f95b0000000000000000000000000000000000000000000000000000000000000000000000000000000000000000000000000000000000000000000000000000006000000000000000000000000000000000000000000000000000000000000002a4dd46508f0000000000000000000000000000000000000000000000000000000000000040000000000000000000000000000000000000000000000000000000006985e5bf0000000000000000000000000000000000000000000000000000000000000240000000000000000000000000000000000000000000000000000000000000004000000000000000000000000000000000000000000000000000000000000000800000000000000000000000000000000000000000000000000000000000000002011100000000000000000000000000000000000000000000000000000000000000000000000000000000000000000000000000000000000000000000000000020000000000000000000000000000000000000000000000000000000000000040000000000000000000000000000000000000000000000000000000000000012000000000000000000000000000000000000000000000000000000000000000c0000000000000000000000000000000000000000000000000000000000003c8890000000000000000000000000000000000000000000000000011f0f2c01da0000000000000000000000000000000000000000000000000000008f8770c02ec000000000000000000000000000000000000000000000000000008f8770c02ec0000000000000000000000000000000000000000000000000000000000000000a00000000000000000000000000000000000000000000000000000000000000000000000000000000000000000000000000000000000000000000000000000006000000000000000000000000055d398326f99059ff775485246999027b31979550000000000000000000000008ac76a51cc950d9822d68b83fe1ad97b32cd580d000000000000000000000000103bfd57e4e662d7e9efe968da909232c06adc3d00000000000000000000000000000000000000000000000000000000000000000000000000000000103bfd57e4e662d7e9efe968da909232c06adc3d0000000000000000000000000000000000000000000000000000000000000000000000000000000000000000000000000000000000000000000000000000006000000000000000000000000000000000000000000000000000000000000001049ff0e27900000000000000000000000055d398326f99059ff775485246999027b31979550000000000000000000000008ac76a51cc950d9822d68b83fe1ad97b32cd580d000000000000000000000000000000000000000000000000000000000000271000000000000000000000000000000000000000000000000000000000000000c800000000000000000000000000000000000000000000000000000000000000000000000000000000000000008ac76a51cc950d9822d68b83fe1ad97b32cd580d0000000000000000000000005992fe461f81c8e0affa95b831e50e9b3854ba0e000000000000000000000000000000000000000000000000002386f26fc100000000000000000000000000000000000000000000000000000000000000000000000000000000000000000000000000000000000000000000000000e0000000000000000000000000000000000000000000000000000000000000004000000000000000000000000000000000000000000000000000000000000000c00000000000000000000000000000000000000000000000000000000000000041dbf8fff1f18ae4a4597c2c879ff46874ef76f3aa9f89c54b7e3c17599b5d0e562dce425b52c598ffc80815ce3751ab254d85f5bf69b5f39c7fed765d4c47c7ca1c000000000000000000000000000000000000000000000000000000000000000000000000000000000000000000000000000000000000000000000000000000",
        "nonce": "0x32d",
        "chainId": "0x38"
      },
      "additionalContracts": [
        {
          "transactionType": "CREATE2",
          "contractName": null,
          "address": "0x103bfd57e4e662d7e9efe968da909232c06adc3d",
          "initCode": "0x3d602d80600a3d3981f3363d3d373d3d3d363d738a3e1e1680cf2279d9eca6e55e4e8897363ea60d5af43d82803e903d91602b57fd5bf3"
        }
      ],
      "isFixedGasLimit": false
    }
  ],
  "receipts": [
    {
      "status": "0x1",
      "cumulativeGasUsed": "0x8f03d7",
      "logs": [
        {
          "address": "0x040582fc8627d0249f3f626a8a36d8649b1ec24c",
          "topics": [
            "0xa407b0cce438854eda73b129d429b598518726d6eb1c0f880ca7f1eede073c21",
            "0x000000000000000000000000103bfd57e4e662d7e9efe968da909232c06adc3d",
            "0x0000000000000000000000008a3e1e1680cf2279d9eca6e55e4e8897363ea60d"
          ],
          "data": "0x",
          "blockHash": "0x3cb441a4f208a672ef6cbccf7b41f46e5d179036857f0cb8610387aaacf7d2e3",
          "blockNumber": "0x4bf2e9f",
          "blockTimestamp": "0x6985e59a",
          "transactionHash": "0x7edfc634fb320c548302b93a3f3cbd936ffa706876b2eab84b39c6d9d24428ec",
          "transactionIndex": "0x36",
          "logIndex": "0x12b",
          "removed": false
        },
        {
          "address": "0x28e2ea090877bf75740558f6bfb36a5ffee9e9df",
          "topics": [
            "0xf208f4912782fd25c7f114ca3723a2d5dd6f3bcc3ac8db5af63baa85f711d5ec",
            "0x762126e8c4cc4efcea601b55c5a1df29723eb81832cf008a357ff9ff2c4525eb",
            "0x0000000000000000000000007a4a5c919ae2541aed11041a1aeee68f1287f95b"
          ],
          "data": "0xfffffffffffffffffffffffffffffffffffffffffffffffffffffffffff2766000000000000000000000000000000000000000000000000000000000000d89a0ffffffffffffffffffffffffffffffffffffffffffffffffffee0f0d3fe26000000000000000000000000000000000000000000000000000000000000003c889",
          "blockHash": "0x3cb441a4f208a672ef6cbccf7b41f46e5d179036857f0cb8610387aaacf7d2e3",
          "blockNumber": "0x4bf2e9f",
          "blockTimestamp": "0x6985e59a",
          "transactionHash": "0x7edfc634fb320c548302b93a3f3cbd936ffa706876b2eab84b39c6d9d24428ec",
          "transactionIndex": "0x36",
          "logIndex": "0x12c",
          "removed": false
        },
        {
          "address": "0x55d398326f99059ff775485246999027b3197955",
          "topics": [
            "0xddf252ad1be2c89b69c2b068fc378daa952ba7f163c4a11628f55a4df523b3ef",
            "0x00000000000000000000000028e2ea090877bf75740558f6bfb36a5ffee9e9df",
            "0x000000000000000000000000103bfd57e4e662d7e9efe968da909232c06adc3d"
          ],
          "data": "0x0000000000000000000000000000000000000000000000000011e5ebfd4ada71",
          "blockHash": "0x3cb441a4f208a672ef6cbccf7b41f46e5d179036857f0cb8610387aaacf7d2e3",
          "blockNumber": "0x4bf2e9f",
          "blockTimestamp": "0x6985e59a",
          "transactionHash": "0x7edfc634fb320c548302b93a3f3cbd936ffa706876b2eab84b39c6d9d24428ec",
          "transactionIndex": "0x36",
          "logIndex": "0x12d",
          "removed": false
        },
        {
          "address": "0x8ac76a51cc950d9822d68b83fe1ad97b32cd580d",
          "topics": [
            "0xddf252ad1be2c89b69c2b068fc378daa952ba7f163c4a11628f55a4df523b3ef",
            "0x00000000000000000000000028e2ea090877bf75740558f6bfb36a5ffee9e9df",
            "0x000000000000000000000000103bfd57e4e662d7e9efe968da909232c06adc3d"
          ],
          "data": "0x0000000000000000000000000000000000000000000000000011fc004df16385",
          "blockHash": "0x3cb441a4f208a672ef6cbccf7b41f46e5d179036857f0cb8610387aaacf7d2e3",
          "blockNumber": "0x4bf2e9f",
          "blockTimestamp": "0x6985e59a",
          "transactionHash": "0x7edfc634fb320c548302b93a3f3cbd936ffa706876b2eab84b39c6d9d24428ec",
          "transactionIndex": "0x36",
          "logIndex": "0x12e",
          "removed": false
        },
        {
          "address": "0x55d398326f99059ff775485246999027b3197955",
          "topics": [
            "0x8c5be1e5ebec7d5bd14f71427d1e84f3dd0314c0f7b2291e5b200ac8c7c3b925",
            "0x000000000000000000000000103bfd57e4e662d7e9efe968da909232c06adc3d",
            "0x0000000000000000000000009461852ae90c5633207283762a1b5db337fb3f44"
          ],
          "data": "0x0000000000000000000000000000000000000000000000000011e5ebfd4ada71",
          "blockHash": "0x3cb441a4f208a672ef6cbccf7b41f46e5d179036857f0cb8610387aaacf7d2e3",
          "blockNumber": "0x4bf2e9f",
          "blockTimestamp": "0x6985e59a",
          "transactionHash": "0x7edfc634fb320c548302b93a3f3cbd936ffa706876b2eab84b39c6d9d24428ec",
          "transactionIndex": "0x36",
          "logIndex": "0x12f",
          "removed": false
        },
        {
          "address": "0x28e2ea090877bf75740558f6bfb36a5ffee9e9df",
          "topics": [
            "0x40e9cecb9f5f1f1c5b9c97dec2917b7ee92e57ba5563708daca94dd84ad7112f",
            "0x762126e8c4cc4efcea601b55c5a1df29723eb81832cf008a357ff9ff2c4525eb",
            "0x0000000000000000000000009461852ae90c5633207283762a1b5db337fb3f44"
          ],
          "data": "0xffffffffffffffffffffffffffffffffffffffffffffffffffee1a1402b5258f0000000000000000000000000000000000000000000000000011cdbcb3b1792a0000000000000000000000000000000000000001009a7bb4de410b63673fc83a00000000000000000000000000000000000000000000000583564a10a29fd2d6000000000000000000000000000000000000000000000000000000000000002f0000000000000000000000000000000000000000000000000000000000002710",
          "blockHash": "0x3cb441a4f208a672ef6cbccf7b41f46e5d179036857f0cb8610387aaacf7d2e3",
          "blockNumber": "0x4bf2e9f",
          "blockTimestamp": "0x6985e59a",
          "transactionHash": "0x7edfc634fb320c548302b93a3f3cbd936ffa706876b2eab84b39c6d9d24428ec",
          "transactionIndex": "0x36",
          "logIndex": "0x130",
          "removed": false
        },
        {
          "address": "0x55d398326f99059ff775485246999027b3197955",
          "topics": [
            "0xddf252ad1be2c89b69c2b068fc378daa952ba7f163c4a11628f55a4df523b3ef",
            "0x000000000000000000000000103bfd57e4e662d7e9efe968da909232c06adc3d",
            "0x00000000000000000000000028e2ea090877bf75740558f6bfb36a5ffee9e9df"
          ],
          "data": "0x0000000000000000000000000000000000000000000000000011e5ebfd4ada71",
          "blockHash": "0x3cb441a4f208a672ef6cbccf7b41f46e5d179036857f0cb8610387aaacf7d2e3",
          "blockNumber": "0x4bf2e9f",
          "blockTimestamp": "0x6985e59a",
          "transactionHash": "0x7edfc634fb320c548302b93a3f3cbd936ffa706876b2eab84b39c6d9d24428ec",
          "transactionIndex": "0x36",
          "logIndex": "0x131",
          "removed": false
        },
        {
          "address": "0x55d398326f99059ff775485246999027b3197955",
          "topics": [
            "0x8c5be1e5ebec7d5bd14f71427d1e84f3dd0314c0f7b2291e5b200ac8c7c3b925",
            "0x000000000000000000000000103bfd57e4e662d7e9efe968da909232c06adc3d",
            "0x0000000000000000000000009461852ae90c5633207283762a1b5db337fb3f44"
          ],
          "data": "0x0000000000000000000000000000000000000000000000000000000000000000",
          "blockHash": "0x3cb441a4f208a672ef6cbccf7b41f46e5d179036857f0cb8610387aaacf7d2e3",
          "blockNumber": "0x4bf2e9f",
          "blockTimestamp": "0x6985e59a",
          "transactionHash": "0x7edfc634fb320c548302b93a3f3cbd936ffa706876b2eab84b39c6d9d24428ec",
          "transactionIndex": "0x36",
          "logIndex": "0x132",
          "removed": false
        },
        {
          "address": "0x8ac76a51cc950d9822d68b83fe1ad97b32cd580d",
          "topics": [
            "0xddf252ad1be2c89b69c2b068fc378daa952ba7f163c4a11628f55a4df523b3ef",
            "0x00000000000000000000000028e2ea090877bf75740558f6bfb36a5ffee9e9df",
            "0x000000000000000000000000103bfd57e4e662d7e9efe968da909232c06adc3d"
          ],
          "data": "0x0000000000000000000000000000000000000000000000000011cdbcb3b1792a",
          "blockHash": "0x3cb441a4f208a672ef6cbccf7b41f46e5d179036857f0cb8610387aaacf7d2e3",
          "blockNumber": "0x4bf2e9f",
          "blockTimestamp": "0x6985e59a",
          "transactionHash": "0x7edfc634fb320c548302b93a3f3cbd936ffa706876b2eab84b39c6d9d24428ec",
          "transactionIndex": "0x36",
          "logIndex": "0x133",
          "removed": false
        },
        {
          "address": "0x8ac76a51cc950d9822d68b83fe1ad97b32cd580d",
          "topics": [
            "0xddf252ad1be2c89b69c2b068fc378daa952ba7f163c4a11628f55a4df523b3ef",
            "0x000000000000000000000000103bfd57e4e662d7e9efe968da909232c06adc3d",
            "0x0000000000000000000000005992fe461f81c8e0affa95b831e50e9b3854ba0e"
          ],
          "data": "0x000000000000000000000000000000000000000000000000002386f26fc10000",
          "blockHash": "0x3cb441a4f208a672ef6cbccf7b41f46e5d179036857f0cb8610387aaacf7d2e3",
          "blockNumber": "0x4bf2e9f",
          "blockTimestamp": "0x6985e59a",
          "transactionHash": "0x7edfc634fb320c548302b93a3f3cbd936ffa706876b2eab84b39c6d9d24428ec",
          "transactionIndex": "0x36",
          "logIndex": "0x134",
          "removed": false
        }
      ],
      "logsBloom": "0x00000000000000000000000000000000000000000000000000000000001000100100000000000000800000000000000000080000040000000080000000200080000000000000000001000008000000008000000000000020000000000001000000000000000000000000000000000000000000000800000000000010000000000000000801002000808080008100008000000000000000000000000001004000020004020000000001000000080000400002000040000000040000000000000000000002000000010000000000000010200000000000000000000002000000000010100000004000004000000000000004000000008000000004000000000000",
      "type": "0x2",
      "transactionHash": "0x7edfc634fb320c548302b93a3f3cbd936ffa706876b2eab84b39c6d9d24428ec",
      "transactionIndex": "0x36",
      "blockHash": "0x3cb441a4f208a672ef6cbccf7b41f46e5d179036857f0cb8610387aaacf7d2e3",
      "blockNumber": "0x4bf2e9f",
      "gasUsed": "0x5031b",
      "effectiveGasPrice": "0x2faf080",
      "from": "0x5992fe461f81c8e0affa95b831e50e9b3854ba0e",
      "to": "0xd877909f69922e0a2e49d8aa07da459a18272de9",
      "contractAddress": null
    }
  ],
  "libraries": [],
  "pending": [],
  "returns": {},
  "timestamp": 1770382748006,
  "chain": 56,
  "commit": "50a2576"
}