{
  "transactions": [
    {
      "hash": "0x1d3451e8ae288baf3935a73090febd2843fc7ce9afdd2ef4afe85a8aa7bd6219",
      "transactionType": "CALL",
      "contractName": null,
      "contractAddress": "0xd877909f69922e0a2e49d8aa07da459a18272de9",
      "function": "execute((((address,uint256,bytes)[],bool),uint256,bytes32,address,uint256),bytes)",
      "arguments": [
        "(([(0x8a3e1e1680cF2279D9eCa6E55e4E8897363Ea60d, 0, 0xbda734c6b2f8711f7ecbd0dc6bf68ba91ca801fd09aa4089ec7b59a1fcf6cfae3f1113a3)], true), 3, 0x0000000000000000000000000000000000000000000000000000000000000000, 0x0000000000000000000000000000000000000000, 0)",
        "0x000000000000000000000000000000000000000000000000000000000000004000000000000000000000000000000000000000000000000000000000000000c0000000000000000000000000000000000000000000000000000000000000004193a66ec0836d956c06afd9eb128e412f139eef3a9cf19bb9a5be92be70edf9ba0a65535b2667ad8219dc4fa3a78c929210b005b854da31dd29a1c1abd07c31c51b000000000000000000000000000000000000000000000000000000000000000000000000000000000000000000000000000000000000000000000000000000"
      ],
      "transaction": {
        "from": "0x5992fe461f81c8e0affa95b831e50e9b3854ba0e",
        "to": "0xd877909f69922e0a2e49d8aa07da459a18272de9",
        "gas": "0x2319c",
        "value": "0x0",
        "input": "0xc3c16ee40000000000000000000000000000000000000000000000000000000000000040000000000000000000000000000000000000000000000000000000000000022000000000000000000000000000000000000000000000000000000000000000a0000000000000000000000000000000000000000000000000000000000000000300000000000000000000000000000000000000000000000000000000000000000000000000000000000000000000000000000000000000000000000000000000000000000000000000000000000000000000000000000000000000000000000000000000000000000000000000000000000000000000000000000000000000400000000000000000000000000000000000000000000000000000000000000001000000000000000000000000000000000000000000000000000000000000000100000000000000000000000000000000000000000000000000000000000000200000000000000000000000008a3e1e1680cf2279d9eca6e55e4e8897363ea60d000000000000000000000000000000000000000000000000000000000000000000000000000000000000000000000000000000000000000000000000000000600000000000000000000000000000000000000000000000000000000000000024bda734c6b2f8711f7ecbd0dc6bf68ba91ca801fd09aa4089ec7b59a1fcf6cfae3f1113a30000000000000000000000000000000000000000000000000000000000000000000000000000000000000000000000000000000000000000000000e0000000000000000000000000000000000000000000000000000000000000004000000000000000000000000000000000000000000000000000000000000000c0000000000000000000000000000000000000000000000000000000000000004193a66ec0836d956c06afd9eb128e412f139eef3a9cf19bb9a5be92be70edf9ba0a65535b2667ad8219dc4fa3a78c929210b005b854da31dd29a1c1abd07c31c51b000000000000000000000000000000000000000000000000000000000000000000000000000000000000000000000000000000000000000000000000000000",
        "nonce": "0x32b",
        "chainId": "0x38"
      },
      "additionalContracts": [
        {
          "transactionType": "CREATE2",
          "contractName": null,
          "address": "0x59450aa96b91bde6df03af7f2544776900dcc71b",
          "initCode": "0x3d602d80600a3d3981f3363d3d373d3d3d363d738a3e1e1680cf2279d9eca6e55e4e8897363ea60d5af43d82803e903d91602b57fd5bf3"
        }
      ],
      "isFixedGasLimit": false
    }
  ],
  "receipts": [
    {
      "status": "0x1",
      "cumulativeGasUsed": "0x181c4fb",
      "logs": [
        {
          "address": "0x040582fc8627d0249f3f626a8a36d8649b1ec24c",
          "topics": [
            "0xa407b0cce438854eda73b129d429b598518726d6eb1c0f880ca7f1eede073c21",
            "0x00000000000000000000000059450aa96b91bde6df03af7f2544776900dcc71b",
            "0x0000000000000000000000008a3e1e1680cf2279d9eca6e55e4e8897363ea60d"
          ],
          "data": "0x",
          "blockHash": "0x49286e5105884bdc5685e0b6a27eb1f83d0979d192e3bab368973bdbf9e653cc",
          "blockNumber": "0x4bf21cc",
          "blockTimestamp": "0x6985dfd5",
          "transactionHash": "0x1d3451e8ae288baf3935a73090febd2843fc7ce9afdd2ef4afe85a8aa7bd6219",
          "transactionIndex": "0x3e",
          "logIndex": "0x190",
          "removed": false
        }
      ],
      "logsBloom": "0x00000000000000000000000000000000010000000000000000000000001000100000000000000000000000000000000000080000000000000000000000000000000000000000000000000000000000008000000000000000000000000000000000000000000000000000000000000000000000000800000000000000000000000000000200002000000080000000000000000000000000000000000000000000000000000000000000000000000000000002000000000000000000000000000000000000000000000000000000000000000000000000000000000000000000000000100000000000000000000000000000100000000000000000000000000000",
      "type": "0x2",
      "transactionHash": "0x1d3451e8ae288baf3935a73090febd2843fc7ce9afdd2ef4afe85a8aa7bd6219",
      "transactionIndex": "0x3e",
      "blockHash": "0x49286e5105884bdc5685e0b6a27eb1f83d0979d192e3bab368973bdbf9e653cc",
      "blockNumber": "0x4bf21cc",
      "gasUsed": "0x18002",
      "effectiveGasPrice": "0x2faf080",
      "from": "0x5992fe461f81c8e0affa95b831e50e9b3854ba0e",
      "to": "0xd877909f69922e0a2e49d8aa07da459a18272de9",
      "contractAddress": null
    }
  ],
  "libraries": [],
  "pending": [],
  "returns": {},
  "timestamp": 1770381270805,
  "chain": 56,
  "commit": "50a2576"
}