{
  "transactions": [
    {
      "hash": "0x1004e65170357de24be89bd1b15c3d4d2ac1c8c65106149ae908063eb40f153b",
      "transactionType": "CALL",
      "contractName": null,
      "contractAddress": "0xd877909f69922e0a2e49d8aa07da459a18272de9",
      "function": "execute((((address,uint256,bytes)[],bool),uint256,bytes32,address,uint256),bytes)",
      "arguments": [
        "(([(0x8a3e1e1680cF2279D9eCa6E55e4E8897363Ea60d, 0, 0xbda734c67560935f42de189e97a537d5e3e9e086db1f07e9bb3bf3f175ab1a0f8b53ce04), (0x7A4a5c919aE2541AeD11041A1AEeE68f1287f95b, 0, 0xdd46508f0000000000000000000000000000000000000000000000000000000000000040000000000000000000000000000000000000000000000000000000006985e4780000000000000000000000000000000000000000000000000000000000000240000000000000000000000000000000000000000000000000000000000000004000000000000000000000000000000000000000000000000000000000000000800000000000000000000000000000000000000000000000000000000000000002011100000000000000000000000000000000000000000000000000000000000000000000000000000000000000000000000000000000000000000000000000020000000000000000000000000000000000000000000000000000000000000040000000000000000000000000000000000000000000000000000000000000012000000000000000000000000000000000000000000000000000000000000000c0000000000000000000000000000000000000000000000000000000000003c88900000000000000000000000000000000000000000000000000000000000013ba00000000000000000000000000000000000000000000000000000000000005f500000000000000000000000000000000000000000000000000000000000005f500000000000000000000000000000000000000000000000000000000000000a00000000000000000000000000000000000000000000000000000000000000000000000000000000000000000000000000000000000000000000000000000006000000000000000000000000055d398326f99059ff775485246999027b31979550000000000000000000000008ac76a51cc950d9822d68b83fe1ad97b32cd580d000000000000000000000000a9a749766bb1cb068c2cd990c8ff85f8c160090e), (0xa9A749766Bb1cb068c2cd990C8FF85F8c160090e, 0, 0x9ff0e27900000000000000000000000055d398326f99059ff775485246999027b31979550000000000000000000000008ac76a51cc950d9822d68b83fe1ad97b32cd580d000000000000000000000000000000000000000000000000000000000000271000000000000000000000000000000000000000000000000000000000000000c800000000000000000000000000000000000000000000000000000000000000000000000000000000000000008ac76a51cc950d9822d68b83fe1ad97b32cd580d0000000000000000000000005992fe461f81c8e0affa95b831e50e9b3854ba0e0000000000000000000000000000000000000000000000000000000000002710)], true), 4, 0x0000000000000000000000000000000000000000000000000000000000000000, 0x0000000000000000000000000000000000000000, 0)",
        "0x000000000000000000000000000000000000000000000000000000000000004000000000000000000000000000000000000000000000000000000000000000c000000000000000000000000000000000000000000000000000000000000000417963d5aa39146d4f379a144267f141d6aaaef0977f892ae09a40843fc5f1ead131a8ff1cff40a22b8df41a97cc02a5163308cad04507bfaf5421af8ba1a3f1b41c000000000000000000000000000000000000000000000000000000000000000000000000000000000000000000000000000000000000000000000000000000"
      ],
      "transaction": {
        "from": "0x5992fe461f81c8e0affa95b831e50e9b3854ba0e",
        "to": "0xd877909f69922e0a2e49d8aa07da459a18272de9",
        "gas": "0x74337",
        "value": "0x0",
        "input": "0xc3c16ee40000000000000000000000000000000000000000000000000000000000000040000000000000000000000000000000000000000000000000000000000000074000000000000000000000000000000000000000000000000000000000000000a000000000000000000000000000000000000000000000000000000000000000040000000000000000000000000000000000000000000000000000000000000000000000000000000000000000000000000000000000000000000000000000000000000000000000000000000000000000000000000000000000000000000000000000000000000000000000000000000000000000000000000000000000000040000000000000000000000000000000000000000000000000000000000000000100000000000000000000000000000000000000000000000000000000000000030000000000000000000000000000000000000000000000000000000000000060000000000000000000000000000000000000000000000000000000000000012000000000000000000000000000000000000000000000000000000000000004600000000000000000000000008a3e1e1680cf2279d9eca6e55e4e8897363ea60d000000000000000000000000000000000000000000000000000000000000000000000000000000000000000000000000000000000000000000000000000000600000000000000000000000000000000000000000000000000000000000000024bda734c67560935f42de189e97a537d5e3e9e086db1f07e9bb3bf3f175ab1a0f8b53ce04000000000000000000000000000000000000000000000000000000000000000000000000000000007a4a5c919ae2541aed11041a1aeee68f1287f95b0000000000000000000000000000000000000000000000000000000000000000000000000000000000000000000000000000000000000000000000000000006000000000000000000000000000000000000000000000000000000000000002a4dd46508f0000000000000000000000000000000000000000000000000000000000000040000000000000000000000000000000000000000000000000000000006985e4780000000000000000000000000000000000000000000000000000000000000240000000000000000000000000000000000000000000000000000000000000004000000000000000000000000000000000000000000000000000000000000000800000000000000000000000000000000000000000000000000000000000000002011100000000000000000000000000000000000000000000000000000000000000000000000000000000000000000000000000000000000000000000000000020000000000000000000000000000000000000000000000000000000000000040000000000000000000000000000000000000000000000000000000000000012000000000000000000000000000000000000000000000000000000000000000c0000000000000000000000000000000000000000000000000000000000003c88900000000000000000000000000000000000000000000000000000000000013ba00000000000000000000000000000000000000000000000000000000000005f500000000000000000000000000000000000000000000000000000000000005f500000000000000000000000000000000000000000000000000000000000000a00000000000000000000000000000000000000000000000000000000000000000000000000000000000000000000000000000000000000000000000000000006000000000000000000000000055d398326f99059ff775485246999027b31979550000000000000000000000008ac76a51cc950d9822d68b83fe1ad97b32cd580d000000000000000000000000a9a749766bb1cb068c2cd990c8ff85f8c160090e00000000000000000000000000000000000000000000000000000000000000000000000000000000a9a749766bb1cb068c2cd990c8ff85f8c160090e0000000000000000000000000000000000000000000000000000000000000000000000000000000000000000000000000000000000000000000000000000006000000000000000000000000000000000000000000000000000000000000001049ff0e27900000000000000000000000055d398326f99059ff775485246999027b31979550000000000000000000000008ac76a51cc950d9822d68b83fe1ad97b32cd580d000000000000000000000000000000000000000000000000000000000000271000000000000000000000000000000000000000000000000000000000000000c800000000000000000000000000000000000000000000000000000000000000000000000000000000000000008ac76a51cc950d9822d68b83fe1ad97b32cd580d0000000000000000000000005992fe461f81c8e0affa95b831e50e9b3854ba0e00000000000000000000000000000000000000000000000000000000000027100000000000000000000000000000000000000000000000000000000000000000000000000000000000000000000000000000000000000000000000e0000000000000000000000000000000000000000000000000000000000000004000000000000000000000000000000000000000000000000000000000000000c000000000000000000000000000000000000000000000000000000000000000417963d5aa39146d4f379a144267f141d6aaaef0977f892ae09a40843fc5f1ead131a8ff1cff40a22b8df41a97cc02a5163308cad04507bfaf5421af8ba1a3f1b41c000000000000000000000000000000000000000000000000000000000000000000000000000000000000000000000000000000000000000000000000000000",
        "nonce": "0x32c",
        "chainId": "0x38"
      },
      "additionalContracts": [
        {
          "transactionType": "CREATE2",
          "contractName": null,
          "address": "0xa9a749766bb1cb068c2cd990c8ff85f8c160090e",
          "initCode": "0x3d602d80600a3d3981f3363d3d373d3d3d363d738a3e1e1680cf2279d9eca6e55e4e8897363ea60d5af43d82803e903d91602b57fd5bf3"
        }
      ],
      "isFixedGasLimit": false
    }
  ],
  "receipts": [
    {
      "status": "0x1",
      "cumulativeGasUsed": "0x63506a",
      "logs": [
        {
          "address": "0x040582fc8627d0249f3f626a8a36d8649b1ec24c",
          "topics": [
            "0xa407b0cce438854eda73b129d429b598518726d6eb1c0f880ca7f1eede073c21",
            "0x000000000000000000000000a9a749766bb1cb068c2cd990c8ff85f8c160090e",
            "0x0000000000000000000000008a3e1e1680cf2279d9eca6e55e4e8897363ea60d"
          ],
          "data": "0x",
          "blockHash": "0x3f7e809af396952a0ce8f4a00428bc5d1a5b373a97f3eac8d7f643158dbecad4",
          "blockNumber": "0x4bf2bd1",
          "blockTimestamp": "0x6985e457",
          "transactionHash": "0x1004e65170357de24be89bd1b15c3d4d2ac1c8c65106149ae908063eb40f153b",
          "transactionIndex": "0x29",
          "logIndex": "0xb3",
          "removed": false
        },
        {
          "address": "0x28e2ea090877bf75740558f6bfb36a5ffee9e9df",
          "topics": [
            "0xf208f4912782fd25c7f114ca3723a2d5dd6f3bcc3ac8db5af63baa85f711d5ec",
            "0x762126e8c4cc4efcea601b55c5a1df29723eb81832cf008a357ff9ff2c4525eb",
            "0x0000000000000000000000007a4a5c919ae2541aed11041a1aeee68f1287f95b"
          ],
          "data": "0xfffffffffffffffffffffffffffffffffffffffffffffffffffffffffff2766000000000000000000000000000000000000000000000000000000000000d89a0ffffffffffffffffffffffffffffffffffffffffffffffffffffffffffffec46000000000000000000000000000000000000000000000000000000000003c889",
          "blockHash": "0x3f7e809af396952a0ce8f4a00428bc5d1a5b373a97f3eac8d7f643158dbecad4",
          "blockNumber": "0x4bf2bd1",
          "blockTimestamp": "0x6985e457",
          "transactionHash": "0x1004e65170357de24be89bd1b15c3d4d2ac1c8c65106149ae908063eb40f153b",
          "transactionIndex": "0x29",
          "logIndex": "0xb4",
          "removed": false
        },
        {
          "address": "0x55d398326f99059ff775485246999027b3197955",
          "topics": [
            "0xddf252ad1be2c89b69c2b068fc378daa952ba7f163c4a11628f55a4df523b3ef",
            "0x00000000000000000000000028e2ea090877bf75740558f6bfb36a5ffee9e9df",
            "0x000000000000000000000000a9a749766bb1cb068c2cd990c8ff85f8c160090e"
          ],
          "data": "0x00000000000000000000000000000000000000000000000000000000000013ad",
          "blockHash": "0x3f7e809af396952a0ce8f4a00428bc5d1a5b373a97f3eac8d7f643158dbecad4",
          "blockNumber": "0x4bf2bd1",
          "blockTimestamp": "0x6985e457",
          "transactionHash": "0x1004e65170357de24be89bd1b15c3d4d2ac1c8c65106149ae908063eb40f153b",
          "transactionIndex": "0x29",
          "logIndex": "0xb5",
          "removed": false
        },
        {
          "address": "0x8ac76a51cc950d9822d68b83fe1ad97b32cd580d",
          "topics": [
            "0xddf252ad1be2c89b69c2b068fc378daa952ba7f163c4a11628f55a4df523b3ef",
            "0x00000000000000000000000028e2ea090877bf75740558f6bfb36a5ffee9e9df",
            "0x000000000000000000000000a9a749766bb1cb068c2cd990c8ff85f8c160090e"
          ],
          "data": "0x00000000000000000000000000000000000000000000000000000000000013c6",
          "blockHash": "0x3f7e809af396952a0ce8f4a00428bc5d1a5b373a97f3eac8d7f643158dbecad4",
          "blockNumber": "0x4bf2bd1",
          "blockTimestamp": "0x6985e457",
          "transactionHash": "0x1004e65170357de24be89bd1b15c3d4d2ac1c8c65106149ae908063eb40f153b",
          "transactionIndex": "0x29",
          "logIndex": "0xb6",
          "removed": false
        },
        {
          "address": "0x55d398326f99059ff775485246999027b3197955",
          "topics": [
            "0x8c5be1e5ebec7d5bd14f71427d1e84f3dd0314c0f7b2291e5b200ac8c7c3b925",
            "0x000000000000000000000000a9a749766bb1cb068c2cd990c8ff85f8c160090e",
            "0x0000000000000000000000009461852ae90c5633207283762a1b5db337fb3f44"
          ],
          "data": "0x00000000000000000000000000000000000000000000000000000000000013ad",
          "blockHash": "0x3f7e809af396952a0ce8f4a00428bc5d1a5b373a97f3eac8d7f643158dbecad4",
          "blockNumber": "0x4bf2bd1",
          "blockTimestamp": "0x6985e457",
          "transactionHash": "0x1004e65170357de24be89bd1b15c3d4d2ac1c8c65106149ae908063eb40f153b",
          "transactionIndex": "0x29",
          "logIndex": "0xb7",
          "removed": false
        },
        {
          "address": "0x28e2ea090877bf75740558f6bfb36a5ffee9e9df",
          "topics": [
            "0x40e9cecb9f5f1f1c5b9c97dec2917b7ee92e57ba5563708daca94dd84ad7112f",
            "0x762126e8c4cc4efcea601b55c5a1df29723eb81832cf008a357ff9ff2c4525eb",
            "0x0000000000000000000000009461852ae90c5633207283762a1b5db337fb3f44"
          ],
          "data": "0xffffffffffffffffffffffffffffffffffffffffffffffffffffffffffffec5300000000000000000000000000000000000000000000000000000000000013920000000000000000000000000000000000000001009db66d35cf4bdd5196bcb600000000000000000000000000000000000000000000000583683b0362bd72d600000000000000000000000000000000000000000000000000000000000000300000000000000000000000000000000000000000000000000000000000002710",
          "blockHash": "0x3f7e809af396952a0ce8f4a00428bc5d1a5b373a97f3eac8d7f643158dbecad4",
          "blockNumber": "0x4bf2bd1",
          "blockTimestamp": "0x6985e457",
          "transactionHash": "0x1004e65170357de24be89bd1b15c3d4d2ac1c8c65106149ae908063eb40f153b",
          "transactionIndex": "0x29",
          "logIndex": "0xb8",
          "removed": false
        },
        {
          "address": "0x55d398326f99059ff775485246999027b3197955",
          "topics": [
            "0xddf252ad1be2c89b69c2b068fc378daa952ba7f163c4a11628f55a4df523b3ef",
            "0x000000000000000000000000a9a749766bb1cb068c2cd990c8ff85f8c160090e",
            "0x00000000000000000000000028e2ea090877bf75740558f6bfb36a5ffee9e9df"
          ],
          "data": "0x00000000000000000000000000000000000000000000000000000000000013ad",
          "blockHash": "0x3f7e809af396952a0ce8f4a00428bc5d1a5b373a97f3eac8d7f643158dbecad4",
          "blockNumber": "0x4bf2bd1",
          "blockTimestamp": "0x6985e457",
          "transactionHash": "0x1004e65170357de24be89bd1b15c3d4d2ac1c8c65106149ae908063eb40f153b",
          "transactionIndex": "0x29",
          "logIndex": "0xb9",
          "removed": false
        },
        {
          "address": "0x55d398326f99059ff775485246999027b3197955",
          "topics": [
            "0x8c5be1e5ebec7d5bd14f71427d1e84f3dd0314c0f7b2291e5b200ac8c7c3b925",
            "0x000000000000000000000000a9a749766bb1cb068c2cd990c8ff85f8c160090e",
            "0x0000000000000000000000009461852ae90c5633207283762a1b5db337fb3f44"
          ],
          "data": "0x0000000000000000000000000000000000000000000000000000000000000000",
          "blockHash": "0x3f7e809af396952a0ce8f4a00428bc5d1a5b373a97f3eac8d7f643158dbecad4",
          "blockNumber": "0x4bf2bd1",
          "blockTimestamp": "0x6985e457",
          "transactionHash": "0x1004e65170357de24be89bd1b15c3d4d2ac1c8c65106149ae908063eb40f153b",
          "transactionIndex": "0x29",
          "logIndex": "0xba",
          "removed": false
        },
        {
          "address": "0x8ac76a51cc950d9822d68b83fe1ad97b32cd580d",
          "topics": [
            "0xddf252ad1be2c89b69c2b068fc378daa952ba7f163c4a11628f55a4df523b3ef",
            "0x00000000000000000000000028e2ea090877bf75740558f6bfb36a5ffee9e9df",
            "0x000000000000000000000000a9a749766bb1cb068c2cd990c8ff85f8c160090e"
          ],
          "data": "0x0000000000000000000000000000000000000000000000000000000000001392",
          "blockHash": "0x3f7e809af396952a0ce8f4a00428bc5d1a5b373a97f3eac8d7f643158dbecad4",
          "blockNumber": "0x4bf2bd1",
          "blockTimestamp": "0x6985e457",
          "transactionHash": "0x1004e65170357de24be89bd1b15c3d4d2ac1c8c65106149ae908063eb40f153b",
          "transactionIndex": "0x29",
          "logIndex": "0xbb",
          "removed": false
        },
        {
          "address": "0x8ac76a51cc950d9822d68b83fe1ad97b32cd580d",
          "topics": [
            "0xddf252ad1be2c89b69c2b068fc378daa952ba7f163c4a11628f55a4df523b3ef",
            "0x000000000000000000000000a9a749766bb1cb068c2cd990c8ff85f8c160090e",
            "0x0000000000000000000000005992fe461f81c8e0affa95b831e50e9b3854ba0e"
          ],
          "data": "0x0000000000000000000000000000000000000000000000000000000000002710",
          "blockHash": "0x3f7e809af396952a0ce8f4a00428bc5d1a5b373a97f3eac8d7f643158dbecad4",
          "blockNumber": "0x4bf2bd1",
          "blockTimestamp": "0x6985e457",
          "transactionHash": "0x1004e65170357de24be89bd1b15c3d4d2ac1c8c65106149ae908063eb40f153b",
          "transactionIndex": "0x29",
          "logIndex": "0xbc",
          "removed": false
        }
      ],
      "logsBloom": "0x08000000000000000000000000000000000000000000000000000000001000100000000000000000800000000000000000080000040000000080000000200080000000000000000001000008000000008000000000000020000000000001000000000000000000000000000000000000000000000800000000000010000000000000001801002000808080028100008000000000000000000000000001004000020004020000000001000000080000000002000040000000040000000000000000000002000000000000000000000010200000000000000000000002000000000010100000004000004000000000000004000000008000000004000000000000",
      "type": "0x2",
      "transactionHash": "0x1004e65170357de24be89bd1b15c3d4d2ac1c8c65106149ae908063eb40f153b",
      "transactionIndex": "0x29",
      "blockHash": "0x3f7e809af396952a0ce8f4a00428bc5d1a5b373a97f3eac8d7f643158dbecad4",
      "blockNumber": "0x4bf2bd1",
      "gasUsed": "0x4f743",
      "effectiveGasPrice": "0x2faf080",
      "from": "0x5992fe461f81c8e0affa95b831e50e9b3854ba0e",
      "to": "0xd877909f69922e0a2e49d8aa07da459a18272de9",
      "contractAddress": null
    }
  ],
  "libraries": [],
  "pending": [],
  "returns": {},
  "timestamp": 1770382424957,
  "chain": 56,
  "commit": "50a2576"
}