{
  "transactions": [
    {
      "hash": null,
      "transactionType": "CALL",
      "contractName": null,
      "contractAddress": "0xd877909f69922e0a2e49d8aa07da459a18272de9",
      "function": "execute((((address,uint256,bytes)[],bool),uint256,bytes32,address,uint256),bytes)",
      "arguments": [
        "(([(0x8a3e1e1680cF2279D9eCa6E55e4E8897363Ea60d, 0, 0xbda734c68eaa8d4157334e09692d1955c3fcf68bcdf47f1b72cb985a74b113dd840d9cfe)], true), 3, 0x0000000000000000000000000000000000000000000000000000000000000000, 0x0000000000000000000000000000000000000000, 0)",
        "0x000000000000000000000000000000000000000000000000000000000000004000000000000000000000000000000000000000000000000000000000000000c000000000000000000000000000000000000000000000000000000000000000413189b6069f238f038b719c24f6ca515cc75d26c108d20ef48cdce48ce45c22385cc7ff8ebe8aa4ecc7f544868414a911d6a02e93201c2fabc6173114e496bb9c1b000000000000000000000000000000000000000000000000000000000000000000000000000000000000000000000000000000000000000000000000000000"
      ],
      "transaction": {
        "from": "0x5992fe461f81c8e0affa95b831e50e9b3854ba0e",
        "to": "0xd877909f69922e0a2e49d8aa07da459a18272de9",
        "gas": "0x2319c",
        "value": "0x0",
        "input": "0xc3c16ee40000000000000000000000000000000000000000000000000000000000000040000000000000000000000000000000000000000000000000000000000000022000000000000000000000000000000000000000000000000000000000000000a0000000000000000000000000000000000000000000000000000000000000000300000000000000000000000000000000000000000000000000000000000000000000000000000000000000000000000000000000000000000000000000000000000000000000000000000000000000000000000000000000000000000000000000000000000000000000000000000000000000000000000000000000000000400000000000000000000000000000000000000000000000000000000000000001000000000000000000000000000000000000000000000000000000000000000100000000000000000000000000000000000000000000000000000000000000200000000000000000000000008a3e1e1680cf2279d9eca6e55e4e8897363ea60d000000000000000000000000000000000000000000000000000000000000000000000000000000000000000000000000000000000000000000000000000000600000000000000000000000000000000000000000000000000000000000000024bda734c68eaa8d4157334e09692d1955c3fcf68bcdf47f1b72cb985a74b113dd840d9cfe0000000000000000000000000000000000000000000000000000000000000000000000000000000000000000000000000000000000000000000000e0000000000000000000000000000000000000000000000000000000000000004000000000000000000000000000000000000000000000000000000000000000c000000000000000000000000000000000000000000000000000000000000000413189b6069f238f038b719c24f6ca515cc75d26c108d20ef48cdce48ce45c22385cc7ff8ebe8aa4ecc7f544868414a911d6a02e93201c2fabc6173114e496bb9c1b000000000000000000000000000000000000000000000000000000000000000000000000000000000000000000000000000000000000000000000000000000",
        "nonce": "0x32b",
        "chainId": "0x38"
      },
      "additionalContracts": [
        {
          "transactionType": "CREATE2",
          "contractName": null,
          "address": "0x1feb0e8ba69eeb364327552c24f7822b427495b4",
          "initCode": "0x3d602d80600a3d3981f3363d3d373d3d3d363d738a3e1e1680cf2279d9eca6e55e4e8897363ea60d5af43d82803e903d91602b57fd5bf3"
        }
      ],
      "isFixedGasLimit": false
    }
  ],
  "receipts": [],
  "libraries": [],
  "pending": [],
  "returns": {},
  "timestamp": 1770381242700,
  "chain": 56,
  "commit": "50a2576"
}